{
  "_format": "hh-sol-artifact-1",
  "contractName": "VotingAndFunds",
  "sourceName": "contracts/VotingAndFunds.sol",
  "abi": [
    {
      "inputs": [],
      "stateMutability": "payable",
      "type": "constructor"
    },
    {
      "inputs": [
        {
          "internalType": "uint256",
          "name": "balance",
          "type": "uint256"
        },
        {
          "internalType": "uint256",
          "name": "withdrawAmount",
          "type": "uint256"
        }
      ],
      "name": "InsufficientBalance",
      "type": "error"
    },
    {
      "anonymous": false,
      "inputs": [
        {
          "indexed": false,
          "internalType": "uint256",
          "name": "amount",
          "type": "uint256"
        }
      ],
      "name": "Deposit",
      "type": "event"
    },
    {
      "anonymous": false,
      "inputs": [
        {
          "indexed": true,
          "internalType": "address",
          "name": "borrower",
          "type": "address"
        },
        {
          "indexed": false,
          "internalType": "uint256",
          "name": "amount",
          "type": "uint256"
        }
      ],
      "name": "LoanRepaid",
      "type": "event"
    },
    {
      "anonymous": false,
      "inputs": [
        {
          "indexed": true,
          "internalType": "address",
          "name": "borrower",
          "type": "address"
        },
        {
          "indexed": false,
          "internalType": "uint256",
          "name": "amount",
          "type": "uint256"
        },
        {
          "indexed": false,
          "internalType": "uint256",
          "name": "interest",
          "type": "uint256"
        }
      ],
      "name": "LoanTaken",
      "type": "event"
    },
    {
      "anonymous": false,
      "inputs": [
        {
          "indexed": true,
          "internalType": "address",
          "name": "voter",
          "type": "address"
        },
        {
          "indexed": false,
          "internalType": "uint8",
          "name": "candidate",
          "type": "uint8"
        }
      ],
      "name": "VoteCasted",
      "type": "event"
    },
    {
      "anonymous": false,
      "inputs": [
        {
          "indexed": false,
          "internalType": "uint256",
          "name": "amount",
          "type": "uint256"
        }
      ],
      "name": "Withdraw",
      "type": "event"
    },
    {
      "inputs": [],
      "name": "INTEREST_RATE",
      "outputs": [
        {
          "internalType": "uint256",
          "name": "",
          "type": "uint256"
        }
      ],
      "stateMutability": "view",
      "type": "function"
    },
    {
      "inputs": [],
      "name": "balance",
      "outputs": [
        {
          "internalType": "uint256",
          "name": "",
          "type": "uint256"
        }
      ],
      "stateMutability": "view",
      "type": "function"
    },
    {
      "inputs": [],
      "name": "deposit",
      "outputs": [],
      "stateMutability": "payable",
      "type": "function"
    },
    {
      "inputs": [],
      "name": "getBalance",
      "outputs": [
        {
          "internalType": "uint256",
          "name": "",
          "type": "uint256"
        }
      ],
      "stateMutability": "view",
      "type": "function"
    },
    {
      "inputs": [
        {
          "internalType": "uint8",
          "name": "_candidate",
          "type": "uint8"
        }
      ],
      "name": "getVotes",
      "outputs": [
        {
          "internalType": "uint256",
          "name": "",
          "type": "uint256"
        }
      ],
      "stateMutability": "view",
      "type": "function"
    },
    {
      "inputs": [
        {
          "internalType": "address",
          "name": "",
          "type": "address"
        }
      ],
      "name": "loans",
      "outputs": [
        {
          "internalType": "uint256",
          "name": "",
          "type": "uint256"
        }
      ],
      "stateMutability": "view",
      "type": "function"
    },
    {
      "inputs": [],
      "name": "owner",
      "outputs": [
        {
          "internalType": "address payable",
          "name": "",
          "type": "address"
        }
      ],
      "stateMutability": "view",
      "type": "function"
    },
    {
      "inputs": [],
      "name": "repayLoan",
      "outputs": [],
      "stateMutability": "payable",
      "type": "function"
    },
    {
      "inputs": [
        {
          "internalType": "uint256",
          "name": "_amount",
          "type": "uint256"
        }
      ],
      "name": "takeLoan",
      "outputs": [],
      "stateMutability": "nonpayable",
      "type": "function"
    },
    {
      "inputs": [
        {
          "internalType": "uint8",
          "name": "_candidate",
          "type": "uint8"
        }
      ],
      "name": "vote",
      "outputs": [],
      "stateMutability": "nonpayable",
      "type": "function"
    },
    {
      "inputs": [
        {
          "internalType": "address",
          "name": "",
          "type": "address"
        }
      ],
      "name": "voters",
      "outputs": [
        {
          "internalType": "bool",
          "name": "voted",
          "type": "bool"
        },
        {
          "internalType": "uint8",
          "name": "vote",
          "type": "uint8"
        }
      ],
      "stateMutability": "view",
      "type": "function"
    },
    {
      "inputs": [
        {
          "internalType": "uint8",
          "name": "",
          "type": "uint8"
        }
      ],
      "name": "votes",
      "outputs": [
        {
          "internalType": "uint256",
          "name": "",
          "type": "uint256"
        }
      ],
      "stateMutability": "view",
      "type": "function"
    },
    {
      "inputs": [
        {
          "internalType": "uint256",
          "name": "_withdrawAmount",
          "type": "uint256"
        }
      ],
      "name": "withdraw",
      "outputs": [],
      "stateMutability": "nonpayable",
      "type": "function"
    }
  ],
  "bytecode": "0x6080604052336000806101000a81548173ffffffffffffffffffffffffffffffffffffffff021916908373ffffffffffffffffffffffffffffffffffffffff1602179055503460018190555061120d8061005a6000396000f3fe6080604052600436106100c25760003560e01c80638da5cb5b1161007f578063b69ef8a811610059578063b69ef8a81461027b578063c1b43357146102a6578063d0e30db0146102e3578063f966ade7146102ed576100c2565b80638da5cb5b146101e9578063a3ec138d14610214578063b3f98adc14610252576100c2565b806312065fe0146100c75780632e1a7d4d146100f25780635b72a33a1461011b57806373b4086b146101465780638953bb72146101835780638c803fc2146101c0575b600080fd5b3480156100d357600080fd5b506100dc6102f7565b6040516100e99190610aea565b60405180910390f35b3480156100fe57600080fd5b5061011960048036038101906101149190610b36565b610301565b005b34801561012757600080fd5b50610130610474565b60405161013d9190610aea565b60405180910390f35b34801561015257600080fd5b5061016d60048036038101906101689190610bc1565b610479565b60405161017a9190610aea565b60405180910390f35b34801561018f57600080fd5b506101aa60048036038101906101a59190610c27565b610491565b6040516101b79190610aea565b60405180910390f35b3480156101cc57600080fd5b506101e760048036038101906101e29190610b36565b6104b4565b005b3480156101f557600080fd5b506101fe61065b565b60405161020b9190610c75565b60405180910390f35b34801561022057600080fd5b5061023b60048036038101906102369190610bc1565b61067f565b604051610249929190610cba565b60405180910390f35b34801561025e57600080fd5b5061027960048036038101906102749190610c27565b6106bd565b005b34801561028757600080fd5b5061029061086d565b60405161029d9190610aea565b60405180910390f35b3480156102b257600080fd5b506102cd60048036038101906102c89190610c27565b610873565b6040516102da9190610aea565b60405180910390f35b6102eb61088b565b005b6102f5610920565b005b6000600154905090565b60008054906101000a900473ffffffffffffffffffffffffffffffffffffffff1673ffffffffffffffffffffffffffffffffffffffff163373ffffffffffffffffffffffffffffffffffffffff161461038f576040517f08c379a000000000000000000000000000000000000000000000000000000000815260040161038690610d66565b60405180910390fd5b8060015410156103da57600154816040517fcf4791810000000000000000000000000000000000000000000000000000000081526004016103d1929190610d86565b60405180910390fd5b80600160008282546103ec9190610dde565b925050819055503373ffffffffffffffffffffffffffffffffffffffff166108fc829081150290604051600060405180830381858888f19350505050158015610439573d6000803e3d6000fd5b507f5b6b431d4476a211bb7d41c20d1aab9ae2321deee0d20be3d9fc9b1093fa6e3d816040516104699190610aea565b60405180910390a150565b600581565b60046020528060005260406000206000915090505481565b6000600360008360ff1660ff168152602001908152602001600020549050919050565b600081116104f7576040517f08c379a00000000000000000000000000000000000000000000000000000000081526004016104ee90610e84565b60405180910390fd5b60015481111561053c576040517f08c379a000000000000000000000000000000000000000000000000000000000815260040161053390610ef0565b60405180910390fd5b6000606460058361054d9190610f10565b6105579190610f81565b905080826105659190610fb2565b600460003373ffffffffffffffffffffffffffffffffffffffff1673ffffffffffffffffffffffffffffffffffffffff1681526020019081526020016000208190555081600160008282546105ba9190610dde565b925050819055503373ffffffffffffffffffffffffffffffffffffffff166108fc839081150290604051600060405180830381858888f19350505050158015610607573d6000803e3d6000fd5b503373ffffffffffffffffffffffffffffffffffffffff167e6b9bb4766cf5ab74b890df959e4fad0e54b1c3885e49c9541d36253a6e39e6838360405161064f929190610d86565b60405180910390a25050565b60008054906101000a900473ffffffffffffffffffffffffffffffffffffffff1681565b60026020528060005260406000206000915090508060000160009054906101000a900460ff16908060000160019054906101000a900460ff16905082565b600260003373ffffffffffffffffffffffffffffffffffffffff1673ffffffffffffffffffffffffffffffffffffffff16815260200190815260200160002060000160009054906101000a900460ff161561074d576040517f08c379a000000000000000000000000000000000000000000000000000000000815260040161074490611032565b60405180910390fd5b60405180604001604052806001151581526020018260ff16815250600260003373ffffffffffffffffffffffffffffffffffffffff1673ffffffffffffffffffffffffffffffffffffffff16815260200190815260200160002060008201518160000160006101000a81548160ff02191690831515021790555060208201518160000160016101000a81548160ff021916908360ff1602179055509050506001600360008360ff1660ff16815260200190815260200160002060008282546108159190610fb2565b925050819055503373ffffffffffffffffffffffffffffffffffffffff167f76580ac7c171cd3d2029d56fd501d1351f2db92da148447b53227803bf940c02826040516108629190611052565b60405180910390a250565b60015481565b60036020528060005260406000206000915090505481565b600034116108ce576040517f08c379a00000000000000000000000000000000000000000000000000000000081526004016108c5906110df565b60405180910390fd5b34600160008282546108e09190610fb2565b925050819055507f4d6ce1e535dbade1c23defba91e23b8f791ce5edc0cc320257a2b364e4e38426346040516109169190610aea565b60405180910390a1565b6000600460003373ffffffffffffffffffffffffffffffffffffffff1673ffffffffffffffffffffffffffffffffffffffff16815260200190815260200160002054116109a2576040517f08c379a00000000000000000000000000000000000000000000000000000000081526004016109999061114b565b60405180910390fd5b600460003373ffffffffffffffffffffffffffffffffffffffff1673ffffffffffffffffffffffffffffffffffffffff168152602001908152602001600020543414610a23576040517f08c379a0000000000000000000000000000000000000000000000000000000008152600401610a1a906111b7565b60405180910390fd5b6000600460003373ffffffffffffffffffffffffffffffffffffffff1673ffffffffffffffffffffffffffffffffffffffff168152602001908152602001600020819055503460016000828254610a7a9190610fb2565b925050819055503373ffffffffffffffffffffffffffffffffffffffff167fc200a1f31dd659e356e0f112c82558e25f49f7b0f84438691cd96f5cb355882334604051610ac79190610aea565b60405180910390a2565b6000819050919050565b610ae481610ad1565b82525050565b6000602082019050610aff6000830184610adb565b92915050565b600080fd5b610b1381610ad1565b8114610b1e57600080fd5b50565b600081359050610b3081610b0a565b92915050565b600060208284031215610b4c57610b4b610b05565b5b6000610b5a84828501610b21565b91505092915050565b600073ffffffffffffffffffffffffffffffffffffffff82169050919050565b6000610b8e82610b63565b9050919050565b610b9e81610b83565b8114610ba957600080fd5b50565b600081359050610bbb81610b95565b92915050565b600060208284031215610bd757610bd6610b05565b5b6000610be584828501610bac565b91505092915050565b600060ff82169050919050565b610c0481610bee565b8114610c0f57600080fd5b50565b600081359050610c2181610bfb565b92915050565b600060208284031215610c3d57610c3c610b05565b5b6000610c4b84828501610c12565b91505092915050565b6000610c5f82610b63565b9050919050565b610c6f81610c54565b82525050565b6000602082019050610c8a6000830184610c66565b92915050565b60008115159050919050565b610ca581610c90565b82525050565b610cb481610bee565b82525050565b6000604082019050610ccf6000830185610c9c565b610cdc6020830184610cab565b9392505050565b600082825260208201905092915050565b7f596f7520617265206e6f7420746865206f776e6572206f66207468697320616360008201527f636f756e74000000000000000000000000000000000000000000000000000000602082015250565b6000610d50602583610ce3565b9150610d5b82610cf4565b604082019050919050565b60006020820190508181036000830152610d7f81610d43565b9050919050565b6000604082019050610d9b6000830185610adb565b610da86020830184610adb565b9392505050565b7f4e487b7100000000000000000000000000000000000000000000000000000000600052601160045260246000fd5b6000610de982610ad1565b9150610df483610ad1565b9250828203905081811115610e0c57610e0b610daf565b5b92915050565b7f4c6f616e20616d6f756e74206d7573742062652067726561746572207468616e60008201527f2030000000000000000000000000000000000000000000000000000000000000602082015250565b6000610e6e602283610ce3565b9150610e7982610e12565b604082019050919050565b60006020820190508181036000830152610e9d81610e61565b9050919050565b7f4e6f7420656e6f7567682066756e647320696e2074686520636f6e7472616374600082015250565b6000610eda602083610ce3565b9150610ee582610ea4565b602082019050919050565b60006020820190508181036000830152610f0981610ecd565b9050919050565b6000610f1b82610ad1565b9150610f2683610ad1565b9250828202610f3481610ad1565b91508282048414831517610f4b57610f4a610daf565b5b5092915050565b7f4e487b7100000000000000000000000000000000000000000000000000000000600052601260045260246000fd5b6000610f8c82610ad1565b9150610f9783610ad1565b925082610fa757610fa6610f52565b5b828204905092915050565b6000610fbd82610ad1565b9150610fc883610ad1565b9250828201905080821115610fe057610fdf610daf565b5b92915050565b7f596f75206861766520616c726561647920766f7465642e000000000000000000600082015250565b600061101c601783610ce3565b915061102782610fe6565b602082019050919050565b6000602082019050818103600083015261104b8161100f565b9050919050565b60006020820190506110676000830184610cab565b92915050565b7f4465706f73697420616d6f756e74206d7573742062652067726561746572207460008201527f68616e2030000000000000000000000000000000000000000000000000000000602082015250565b60006110c9602583610ce3565b91506110d48261106d565b604082019050919050565b600060208201905081810360008301526110f8816110bc565b9050919050565b7f596f752068617665206e6f206c6f616e7320746f207265706179000000000000600082015250565b6000611135601a83610ce3565b9150611140826110ff565b602082019050919050565b6000602082019050818103600083015261116481611128565b9050919050565b7f496e636f72726563742072657061796d656e7420616d6f756e74000000000000600082015250565b60006111a1601a83610ce3565b91506111ac8261116b565b602082019050919050565b600060208201905081810360008301526111d081611194565b905091905056fea2646970667358221220621a956a545b37795dd8434bee6f6d7583f44a4d5a047b9e1cceabb7e18b1dc664736f6c63430008110033",
  "linkReferences": {},
  "deployedLinkReferences": {}
}